{"abi":[{"type":"constructor","inputs":[],"stateMutability":"nonpayable"},{"type":"fallback","stateMutability":"payable"},{"type":"receive","stateMutability":"payable"},{"type":"function","name":"createProject","inputs":[{"name":"donationToken","type":"address","internalType":"address"},{"name":"goal","type":"uint256","internalType":"uint256"},{"name":"descriptions","type":"string[]","internalType":"string[]"},{"name":"amounts","type":"uint256[]","internalType":"uint256[]"}],"outputs":[{"name":"projectId","type":"uint256","internalType":"uint256"}],"stateMutability":"nonpayable"},{"type":"function","name":"donate","inputs":[{"name":"projectId","type":"uint256","internalType":"uint256"}],"outputs":[],"stateMutability":"payable"},{"type":"function","name":"donateERC20","inputs":[{"name":"projectId","type":"uint256","internalType":"uint256"},{"name":"amount","type":"uint256","internalType":"uint256"}],"outputs":[],"stateMutability":"nonpayable"},{"type":"function","name":"donorContributions","inputs":[{"name":"","type":"uint256","internalType":"uint256"},{"name":"","type":"address","internalType":"address"}],"outputs":[{"name":"","type":"uint256","internalType":"uint256"}],"stateMutability":"view"},{"type":"function","name":"emergencyWithdraw","inputs":[{"name":"projectId","type":"uint256","internalType":"uint256"}],"outputs":[],"stateMutability":"nonpayable"},{"type":"function","name":"getCurrentMilestone","inputs":[{"name":"projectId","type":"uint256","internalType":"uint256"}],"outputs":[{"name":"","type":"tuple","internalType":"struct DataStructures.Milestone","components":[{"name":"description","type":"string","internalType":"string"},{"name":"amountRequested","type":"uint256","internalType":"uint256"},{"name":"approved","type":"bool","internalType":"bool"},{"name":"fundsReleased","type":"bool","internalType":"bool"},{"name":"voteWeight","type":"uint256","internalType":"uint256"}]}],"stateMutability":"view"},{"type":"function","name":"getDonorContribution","inputs":[{"name":"projectId","type":"uint256","internalType":"uint256"},{"name":"donor","type":"address","internalType":"address"}],"outputs":[{"name":"","type":"uint256","internalType":"uint256"}],"stateMutability":"view"},{"type":"function","name":"getMilestone","inputs":[{"name":"projectId","type":"uint256","internalType":"uint256"},{"name":"milestoneId","type":"uint256","internalType":"uint256"}],"outputs":[{"name":"","type":"tuple","internalType":"struct DataStructures.Milestone","components":[{"name":"description","type":"string","internalType":"string"},{"name":"amountRequested","type":"uint256","internalType":"uint256"},{"name":"approved","type":"bool","internalType":"bool"},{"name":"fundsReleased","type":"bool","internalType":"bool"},{"name":"voteWeight","type":"uint256","internalType":"uint256"}]}],"stateMutability":"view"},{"type":"function","name":"getMilestoneVoteStatus","inputs":[{"name":"projectId","type":"uint256","internalType":"uint256"},{"name":"milestoneId","type":"uint256","internalType":"uint256"}],"outputs":[{"name":"voteWeight","type":"uint256","internalType":"uint256"},{"name":"snapshot","type":"uint256","internalType":"uint256"},{"name":"canRelease","type":"bool","internalType":"bool"}],"stateMutability":"view"},{"type":"function","name":"getProject","inputs":[{"name":"projectId","type":"uint256","internalType":"uint256"}],"outputs":[{"name":"","type":"tuple","internalType":"struct DataStructures.Project","components":[{"name":"id","type":"uint256","internalType":"uint256"},{"name":"ngo","type":"address","internalType":"address"},{"name":"donationToken","type":"address","internalType":"address"},{"name":"goal","type":"uint256","internalType":"uint256"},{"name":"totalDonated","type":"uint256","internalType":"uint256"},{"name":"balance","type":"uint256","internalType":"uint256"},{"name":"currentMilestone","type":"uint256","internalType":"uint256"},{"name":"isActive","type":"bool","internalType":"bool"},{"name":"isCompleted","type":"bool","internalType":"bool"}]}],"stateMutability":"view"},{"type":"function","name":"getProjectMilestoneCount","inputs":[{"name":"projectId","type":"uint256","internalType":"uint256"}],"outputs":[{"name":"","type":"uint256","internalType":"uint256"}],"stateMutability":"view"},{"type":"function","name":"hasDonorVoted","inputs":[{"name":"projectId","type":"uint256","internalType":"uint256"},{"name":"milestoneId","type":"uint256","internalType":"uint256"},{"name":"donor","type":"address","internalType":"address"}],"outputs":[{"name":"","type":"bool","internalType":"bool"}],"stateMutability":"view"},{"type":"function","name":"hasVoted","inputs":[{"name":"","type":"uint256","internalType":"uint256"},{"name":"","type":"uint256","internalType":"uint256"},{"name":"","type":"address","internalType":"address"}],"outputs":[{"name":"","type":"bool","internalType":"bool"}],"stateMutability":"view"},{"type":"function","name":"isVerifiedNGO","inputs":[{"name":"ngo","type":"address","internalType":"address"}],"outputs":[{"name":"","type":"bool","internalType":"bool"}],"stateMutability":"view"},{"type":"function","name":"milestoneSnapshotDonations","inputs":[{"name":"","type":"uint256","internalType":"uint256"},{"name":"","type":"uint256","internalType":"uint256"}],"outputs":[{"name":"","type":"uint256","internalType":"uint256"}],"stateMutability":"view"},{"type":"function","name":"milestones","inputs":[{"name":"","type":"uint256","internalType":"uint256"},{"name":"","type":"uint256","internalType":"uint256"}],"outputs":[{"name":"description","type":"string","internalType":"string"},{"name":"amountRequested","type":"uint256","internalType":"uint256"},{"name":"approved","type":"bool","internalType":"bool"},{"name":"fundsReleased","type":"bool","internalType":"bool"},{"name":"voteWeight","type":"uint256","internalType":"uint256"}],"stateMutability":"view"},{"type":"function","name":"owner","inputs":[],"outputs":[{"name":"","type":"address","internalType":"address"}],"stateMutability":"view"},{"type":"function","name":"pause","inputs":[],"outputs":[],"stateMutability":"nonpayable"},{"type":"function","name":"paused","inputs":[],"outputs":[{"name":"","type":"bool","internalType":"bool"}],"stateMutability":"view"},{"type":"function","name":"projectCounter","inputs":[],"outputs":[{"name":"","type":"uint256","internalType":"uint256"}],"stateMutability":"view"},{"type":"function","name":"projectMilestoneCount","inputs":[{"name":"","type":"uint256","internalType":"uint256"}],"outputs":[{"name":"","type":"uint256","internalType":"uint256"}],"stateMutability":"view"},{"type":"function","name":"projects","inputs":[{"name":"","type":"uint256","internalType":"uint256"}],"outputs":[{"name":"id","type":"uint256","internalType":"uint256"},{"name":"ngo","type":"address","internalType":"address"},{"name":"donationToken","type":"address","internalType":"address"},{"name":"goal","type":"uint256","internalType":"uint256"},{"name":"totalDonated","type":"uint256","internalType":"uint256"},{"name":"balance","type":"uint256","internalType":"uint256"},{"name":"currentMilestone","type":"uint256","internalType":"uint256"},{"name":"isActive","type":"bool","internalType":"bool"},{"name":"isCompleted","type":"bool","internalType":"bool"}],"stateMutability":"view"},{"type":"function","name":"registerNGO","inputs":[{"name":"ngo","type":"address","internalType":"address"}],"outputs":[],"stateMutability":"nonpayable"},{"type":"function","name":"releaseFunds","inputs":[{"name":"projectId","type":"uint256","internalType":"uint256"}],"outputs":[],"stateMutability":"nonpayable"},{"type":"function","name":"renounceOwnership","inputs":[],"outputs":[],"stateMutability":"nonpayable"},{"type":"function","name":"revokeNGO","inputs":[{"name":"ngo","type":"address","internalType":"address"}],"outputs":[],"stateMutability":"nonpayable"},{"type":"function","name":"totalProjectDonations","inputs":[{"name":"","type":"uint256","internalType":"uint256"}],"outputs":[{"name":"","type":"uint256","internalType":"uint256"}],"stateMutability":"view"},{"type":"function","name":"transferOwnership","inputs":[{"name":"newOwner","type":"address","internalType":"address"}],"outputs":[],"stateMutability":"nonpayable"},{"type":"function","name":"unpause","inputs":[],"outputs":[],"stateMutability":"nonpayable"},{"type":"function","name":"verifiedNGOs","inputs":[{"name":"","type":"address","internalType":"address"}],"outputs":[{"name":"","type":"bool","internalType":"bool"}],"stateMutability":"view"},{"type":"function","name":"voteMilestone","inputs":[{"name":"projectId","type":"uint256","internalType":"uint256"}],"outputs":[],"stateMutability":"nonpayable"},{"type":"event","name":"DonationReceived","inputs":[{"name":"projectId","type":"uint256","indexed":true,"internalType":"uint256"},{"name":"donor","type":"address","indexed":true,"internalType":"address"},{"name":"amount","type":"uint256","indexed":false,"internalType":"uint256"}],"anonymous":false},{"type":"event","name":"EmergencyWithdrawal","inputs":[{"name":"projectId","type":"uint256","indexed":true,"internalType":"uint256"},{"name":"amount","type":"uint256","indexed":false,"internalType":"uint256"}],"anonymous":false},{"type":"event","name":"FundsReleased","inputs":[{"name":"projectId","type":"uint256","indexed":true,"internalType":"uint256"},{"name":"milestoneId","type":"uint256","indexed":true,"internalType":"uint256"},{"name":"amount","type":"uint256","indexed":false,"internalType":"uint256"}],"anonymous":false},{"type":"event","name":"MilestoneVoted","inputs":[{"name":"projectId","type":"uint256","indexed":true,"internalType":"uint256"},{"name":"milestoneId","type":"uint256","indexed":true,"internalType":"uint256"},{"name":"voter","type":"address","indexed":true,"internalType":"address"},{"name":"weight","type":"uint256","indexed":false,"internalType":"uint256"}],"anonymous":false},{"type":"event","name":"NGORegistered","inputs":[{"name":"ngo","type":"address","indexed":true,"internalType":"address"}],"anonymous":false},{"type":"event","name":"NGORevoked","inputs":[{"name":"ngo","type":"address","indexed":true,"internalType":"address"}],"anonymous":false},{"type":"event","name":"OwnershipTransferred","inputs":[{"name":"previousOwner","type":"address","indexed":true,"internalType":"address"},{"name":"newOwner","type":"address","indexed":true,"internalType":"address"}],"anonymous":false},{"type":"event","name":"Paused","inputs":[{"name":"account","type":"address","indexed":false,"internalType":"address"}],"anonymous":false},{"type":"event","name":"ProjectCompleted","inputs":[{"name":"projectId","type":"uint256","indexed":true,"internalType":"uint256"}],"anonymous":false},{"type":"event","name":"ProjectCreated","inputs":[{"name":"projectId","type":"uint256","indexed":true,"internalType":"uint256"},{"name":"ngo","type":"address","indexed":true,"internalType":"address"}],"anonymous":false},{"type":"event","name":"Unpaused","inputs":[{"name":"account","type":"address","indexed":false,"internalType":"address"}],"anonymous":false},{"type":"error","name":"AlreadyVoted","inputs":[]},{"type":"error","name":"DirectETHSendRejected","inputs":[]},{"type":"error","name":"EnforcedPause","inputs":[]},{"type":"error","name":"ExpectedPause","inputs":[]},{"type":"error","name":"InsufficientAllowance","inputs":[]},{"type":"error","name":"InsufficientBalance","inputs":[]},{"type":"error","name":"InsufficientProjectBalance","inputs":[]},{"type":"error","name":"InvalidDonationAmount","inputs":[]},{"type":"error","name":"InvalidDonationToken","inputs":[]},{"type":"error","name":"InvalidGoal","inputs":[]},{"type":"error","name":"InvalidMilestoneAmount","inputs":[]},{"type":"error","name":"InvalidMilestoneArrays","inputs":[]},{"type":"error","name":"InvalidNGOAddress","inputs":[]},{"type":"error","name":"MilestoneAlreadyApproved","inputs":[]},{"type":"error","name":"MilestoneAlreadyReleased","inputs":[]},{"type":"error","name":"MilestoneSumExceedsGoal","inputs":[]},{"type":"error","name":"NGOAlreadyVerified","inputs":[{"name":"ngo","type":"address","internalType":"address"}]},{"type":"error","name":"NGONotVerified","inputs":[{"name":"ngo","type":"address","internalType":"address"}]},{"type":"error","name":"NoContribution","inputs":[]},{"type":"error","name":"NoCurrentMilestone","inputs":[]},{"type":"error","name":"NotProjectNGO","inputs":[]},{"type":"error","name":"NotVerifiedNGO","inputs":[]},{"type":"error","name":"OwnableInvalidOwner","inputs":[{"name":"owner","type":"address","internalType":"address"}]},{"type":"error","name":"OwnableUnauthorizedAccount","inputs":[{"name":"account","type":"address","internalType":"address"}]},{"type":"error","name":"ProjectAlreadyCompleted","inputs":[]},{"type":"error","name":"ProjectNotActive","inputs":[]},{"type":"error","name":"ProjectNotFound","inputs":[]},{"type":"error","name":"QuorumNotMet","inputs":[]},{"type":"error","name":"ReentrancyGuardReentrantCall","inputs":[]}],"bytecode":{"object":"0x608060405234801561000f575f80fd5b50338061003557604051631e4fbdf760e01b81525f600482015260240160405180910390fd5b61003e81610068565b5060017f9b779b17422d0df92223018b32b4d1fa46e071723d6817e2486d003becc55f00556100b7565b5f80546001600160a01b038381166001600160a01b0319831681178455604051919092169283917f8be0079c531659141344cd1fd0a4f28419497f9722a3daafe3b4186f6b6457e09190a35050565b61277e80620000c55f395ff3fe6080604052600436106101db575f3560e01c80638684640511610101578063ca56d42511610094578063f0f3f2c811610063578063f0f3f2c81461072d578063f14faf6f14610759578063f2fde38b1461076c578063f8a518ed1461078b576101f9565b8063ca56d4251461068e578063dab3a208146106c4578063e6ac3985146106ef578063e76efc001461070e576101f9565b8063a1be44e0116100d0578063a1be44e0146105c4578063a4f325a814610605578063ba581e5314610650578063bfd386981461066f576101f9565b806386846405146104ff5780638da5cb5b1461053b5780638ed9895c146105615780639ef120e81461058d576101f9565b8063489c9c75116101795780635c975abb116101485780635c975abb1461048f578063715018a6146104ac5780637592cf88146104c05780638456cb59146104eb576101f9565b8063489c9c75146104075780634d68282f146104325780635312ea8e1461045157806357ded80214610470576101f9565b80631c376c63116101b55780631c376c631461035e57806322eb641d1461038e5780633e2f2915146103af5780633f4ba83a146103f3576101f9565b80630d39a1d314610212578063107046bd146102665780631bed7b8814610330576101f9565b366101f95760405163429d590f60e01b815260040160405180910390fd5b60405163429d590f60e01b815260040160405180910390fd5b34801561021d575f80fd5b5061025161022c36600461210e565b600860209081525f938452604080852082529284528284209052825290205460ff1681565b60405190151581526020015b60405180910390f35b348015610271575f80fd5b506102dc610280366004612140565b600360208190525f91825260409091208054600182015460028301549383015460048401546005850154600686015460079096015494966001600160a01b03948516969416949293919290919060ff8082169161010090041689565b60408051998a526001600160a01b0398891660208b015296909716958801959095526060870193909352608086019190915260a085015260c0840152151560e083015215156101008201526101200161025d565b34801561033b575f80fd5b5061025161034a366004612157565b60016020525f908152604090205460ff1681565b348015610369575f80fd5b5061037d610378366004612177565b6107a0565b60405161025d9594939291906121da565b348015610399575f80fd5b506103ad6103a8366004612157565b610868565b005b3480156103ba575f80fd5b506103e56103c9366004612210565b600660209081525f928352604080842090915290825290205481565b60405190815260200161025d565b3480156103fe575f80fd5b506103ad610900565b348015610412575f80fd5b506103e5610421366004612140565b60056020525f908152604090205481565b34801561043d575f80fd5b506103ad61044c366004612140565b610912565b34801561045c575f80fd5b506103ad61046b366004612140565b610cf4565b34801561047b575f80fd5b506103ad61048a366004612140565b610e72565b34801561049a575f80fd5b505f54600160a01b900460ff16610251565b3480156104b7575f80fd5b506103ad611077565b3480156104cb575f80fd5b506103e56104da366004612140565b5f9081526005602052604090205490565b3480156104f6575f80fd5b506103ad611088565b34801561050a575f80fd5b5061051e610519366004612177565b611098565b60408051938452602084019290925215159082015260600161025d565b348015610546575f80fd5b505f546040516001600160a01b03909116815260200161025d565b34801561056c575f80fd5b5061058061057b366004612177565b611204565b60405161025d919061223a565b348015610598575f80fd5b506102516105a7366004612157565b6001600160a01b03165f9081526001602052604090205460ff1690565b3480156105cf575f80fd5b506103e56105de366004612210565b5f9182526006602090815260408084206001600160a01b0393909316845291905290205490565b348015610610575f80fd5b5061025161061f36600461210e565b5f9283526008602090815260408085209385529281528284206001600160a01b039290921684525290205460ff1690565b34801561065b575f80fd5b506103ad61066a366004612157565b611325565b34801561067a575f80fd5b506103e5610689366004612361565b6113e6565b348015610699575f80fd5b506103e56106a8366004612177565b600960209081525f928352604080842090915290825290205481565b3480156106cf575f80fd5b506103e56106de366004612140565b60076020525f908152604090205481565b3480156106fa575f80fd5b506103ad610709366004612177565b61178b565b348015610719575f80fd5b50610580610728366004612140565b611b10565b348015610738575f80fd5b5061074c610747366004612140565b611c3d565b60405161025d9190612497565b6103ad610767366004612140565b611d28565b348015610777575f80fd5b506103ad610786366004612157565b611f0b565b348015610796575f80fd5b506103e560025481565b600460209081525f92835260408084209091529082529020805481906107c590612512565b80601f01602080910402602001604051908101604052809291908181526020018280546107f190612512565b801561083c5780601f106108135761010080835404028352916020019161083c565b820191905f5260205f20905b81548152906001019060200180831161081f57829003601f168201915b505050600184015460028501546003909501549394909360ff8083169450610100909204909116915085565b610870611f45565b6001600160a01b0381165f9081526001602052604090205460ff166108b85760405163db1800d560e01b81526001600160a01b03821660048201526024015b60405180910390fd5b6001600160a01b0381165f81815260016020526040808220805460ff19169055517f7ba08e446ff4b8216e30855846bd3920cda05e21ddec09b192ecc5986519ff4a9190a250565b610908611f45565b610910611f71565b565b61091a611fc5565b610922611fef565b5f81815260036020526040812054900361094f57604051632627b46560e11b815260040160405180910390fd5b5f818152600360205260409020600101546001600160a01b03163314610988576040516301952e3b60e31b815260040160405180910390fd5b5f8181526003602090815260408083206006015460059092529091205481106109c4576040516305e6867360e51b815260040160405180910390fd5b5f8281526004602090815260408083208484529091529020600281015460ff1615610a0257604051630535ed3960e41b815260040160405180910390fd5b6002810154610100900460ff1615610a2d576040516340dabeef60e11b815260040160405180910390fd5b5f83815260096020908152604080832085845290915281205490819003610a6757604051636bcf412560e11b815260040160405180910390fd5b6064610a7482603261255e565b610a7e9190612575565b826003015411610aa157604051636bcf412560e11b815260040160405180910390fd5b60018201545f858152600360205260409020600501541015610ad6576040516331f347bd60e11b815260040160405180910390fd5b60028201805461ffff191661010117905560018201545f8581526003602052604081206005018054909190610b0c908490612594565b90915550505f848152600360205260408120600601805491610b2d836125a7565b90915550505f84815260056020526040812054610b4b8560016125bf565b1490508015610b72575f858152600360205260409020600701805461ffff19166101001790555b60018301545f868152600360205260409020600201546001600160a01b0316610bdf575f868152600360205260408082206001015490516001600160a01b039091169183156108fc02918491818181858888f19350505050158015610bd9573d5f803e3d5ffd5b50610c6a565b5f86815260036020526040908190206002810154600190910154915163a9059cbb60e01b81526001600160a01b0392831660048201526024810184905291169063a9059cbb906044016020604051808303815f875af1158015610c44573d5f803e3d5ffd5b505050506040513d601f19601f82011682018060405250810190610c6891906125d2565b505b84867f24d2f6e8ac6c13d1e7610752ab0b7ce03d5043806a65d3d631ae859ad81d159b83604051610c9d91815260200190565b60405180910390a38115610cd65760405186907f60d8df137e489b6216738e436244ca4700bd6d0c8371d3c8d9c80b54538111b9905f90a25b5050505050610cf160015f8051602061272983398151915255565b50565b610cfc611f45565b610d0461200a565b5f818152600360205260408120549003610d3157604051632627b46560e11b815260040160405180910390fd5b5f818152600360205260408120600581018054929055600201546001600160a01b0316610d94575f80546040516001600160a01b039091169183156108fc02918491818181858888f19350505050158015610d8e573d5f803e3d5ffd5b50610e34565b5f828152600360205260409020600201546001600160a01b031663a9059cbb610dc45f546001600160a01b031690565b6040516001600160e01b031960e084901b1681526001600160a01b039091166004820152602481018490526044016020604051808303815f875af1158015610e0e573d5f803e3d5ffd5b505050506040513d601f19601f82011682018060405250810190610e3291906125d2565b505b817f99010623e00d801536d5e2da7de373bda9592873b6d101d65738aa2582e6452282604051610e6691815260200190565b60405180910390a25050565b610e7a611fc5565b5f818152600360205260408120549003610ea757604051632627b46560e11b815260040160405180910390fd5b5f818152600360209081526040808320600601546005909252909120548110610ee3576040516305e6867360e51b815260040160405180910390fd5b5f8281526004602090815260408083208484529091529020600281015460ff1615610f2157604051630535ed3960e41b815260040160405180910390fd5b5f8381526006602090815260408083203384529091528120549003610f5957604051631971fbf360e21b815260040160405180910390fd5b5f838152600860209081526040808320858452825280832033845290915290205460ff1615610f9b57604051637c9a1cf960e01b815260040160405180910390fd5b5f8381526009602090815260408083208584529091528120549003610fdd575f8381526007602090815260408083205460098352818420868552909252909120555b5f8381526006602090815260408083203384529091528120546003830180549192839261100b9084906125bf565b90915550505f84815260086020908152604080832086845282528083203380855290835292819020805460ff1916600117905551838152859187917fa491730788b2591eb7d8bfd2d50b9608d4feab2750cd59eb3c5b916a5c84f0a4910160405180910390a450505050565b61107f611f45565b6109105f612033565b611090611f45565b610910612082565b5f828152600460209081526040808320848452909152808220815160a081019092528054839283928392829082906110cf90612512565b80601f01602080910402602001604051908101604052809291908181526020018280546110fb90612512565b80156111465780601f1061111d57610100808354040283529160200191611146565b820191905f5260205f20905b81548152906001019060200180831161112957829003601f168201915b50505091835250506001820154602080830191909152600283015460ff80821615156040808601919091526101009092041615156060840152600390930154608092830152908301515f8a8152600983528381208a82529092529181205491965090945090915083158015906111d1575060646111c485603261255e565b6111ce9190612575565b85115b6020808401515f8a8152600390925260409091206005015491925011158180156111f85750805b93505050509250925092565b6112366040518060a00160405280606081526020015f81526020015f151581526020015f151581526020015f81525090565b5f83815260046020908152604080832085845290915290819020815160a0810190925280548290829061126890612512565b80601f016020809104026020016040519081016040528092919081815260200182805461129490612512565b80156112df5780601f106112b6576101008083540402835291602001916112df565b820191905f5260205f20905b8154815290600101906020018083116112c257829003601f168201915b505050918352505060018201546020820152600282015460ff80821615156040840152610100909104161515606082015260039091015460809091015290505b92915050565b61132d611f45565b6001600160a01b03811661135457604051632fa1bef760e21b815260040160405180910390fd5b6001600160a01b0381165f9081526001602052604090205460ff1615611398576040516352a9d85960e11b81526001600160a01b03821660048201526024016108af565b6001600160a01b0381165f818152600160208190526040808320805460ff1916909217909155517fb9deda3a98480edf69696f96244a4c593ae26eeb82c387e5c92f2994682760389190a250565b5f6113ef611fc5565b335f9081526001602052604090205460ff1661141e57604051639ada12f360e01b815260040160405180910390fd5b835f0361143e57604051639b60eb4d60e01b815260040160405180910390fd5b815183511461146057604051639c9881c160e01b815260040160405180910390fd5b82515f0361148157604051639c9881c160e01b815260040160405180910390fd5b5f805b83518110156114f55783818151811061149f5761149f6125f1565b60200260200101515f036114c657604051639494117d60e01b815260040160405180910390fd5b8381815181106114d8576114d86125f1565b6020026020010151826114eb91906125bf565b9150600101611484565b5084811115611517576040516340b252ff60e01b815260040160405180910390fd5b60028054905f611526836125a7565b91905055506002549150604051806101200160405280838152602001336001600160a01b03168152602001876001600160a01b031681526020018681526020015f81526020015f81526020015f81526020016001151581526020015f151581525060035f8481526020019081526020015f205f820151815f01556020820151816001015f6101000a8154816001600160a01b0302191690836001600160a01b031602179055506040820151816002015f6101000a8154816001600160a01b0302191690836001600160a01b03160217905550606082015181600301556080820151816004015560a0820151816005015560c0820151816006015560e0820151816007015f6101000a81548160ff0219169083151502179055506101008201518160070160016101000a81548160ff021916908315150217905550905050835160055f8481526020019081526020015f20819055505f5b8451811015611755576040518060a001604052808683815181106116a2576116a26125f1565b602002602001015181526020018583815181106116c1576116c16125f1565b60209081029190910181015182525f828201819052604080840182905260609093018190528681526004825282812085825290915220815181906117059082612651565b5060208201516001808301919091556040830151600283018054606086015115156101000261ff00199315159390931661ffff19909116179190911790556080909201516003909101550161167c565b50604051339083907f63c92f9505d420bff631cb9df33be952bdc11e2118da36a850b43e6bcc4ce4de905f90a350949350505050565b611793611fc5565b61179b611fef565b5f8281526003602052604081205490036117c857604051632627b46560e11b815260040160405180910390fd5b5f8281526003602052604090206007015460ff166117f957604051637701967760e01b815260040160405180910390fd5b5f82815260036020526040902060070154610100900460ff161561183057604051633375d5c760e11b815260040160405180910390fd5b805f036118505760405163bdd5839b60e01b815260040160405180910390fd5b5f828152600360205260409020600201546001600160a01b031661188757604051631606f6e560e11b815260040160405180910390fd5b5f8281526003602052604090819020600201549051636eb1769f60e11b81523360048201523060248201526001600160a01b03909116908290829063dd62ed3e90604401602060405180830381865afa1580156118e6573d5f803e3d5ffd5b505050506040513d601f19601f8201168201806040525081019061190a9190612711565b1015611929576040516313be252b60e01b815260040160405180910390fd5b6040516370a0823160e01b815233600482015282906001600160a01b038316906370a0823190602401602060405180830381865afa15801561196d573d5f803e3d5ffd5b505050506040513d601f19601f820116820180604052508101906119919190612711565b10156119b057604051631e9acf1760e31b815260040160405180910390fd5b5f838152600660209081526040808320338452909152812080548492906119d89084906125bf565b90915550505f83815260076020526040812080548492906119fa9084906125bf565b90915550505f8381526003602052604081206004018054849290611a1f9084906125bf565b90915550505f8381526003602052604081206005018054849290611a449084906125bf565b90915550506040516323b872dd60e01b8152336004820152306024820152604481018390526001600160a01b038216906323b872dd906064016020604051808303815f875af1158015611a99573d5f803e3d5ffd5b505050506040513d601f19601f82011682018060405250810190611abd91906125d2565b50604051828152339084907f0b5b4c52969ff7329ecf7ee536409fda87812b15a8622bc6e8cdeab3aee14a269060200160405180910390a350611b0c60015f8051602061272983398151915255565b5050565b611b426040518060a00160405280606081526020015f81526020015f151581526020015f151581526020015f81525090565b5f828152600360209081526040808320600601546004835281842081855290925291829020825160a08101909352805491929182908290611b8290612512565b80601f0160208091040260200160405190810160405280929190818152602001828054611bae90612512565b8015611bf95780601f10611bd057610100808354040283529160200191611bf9565b820191905f5260205f20905b815481529060010190602001808311611bdc57829003601f168201915b505050918352505060018201546020820152600282015460ff8082161515604084015261010090910416151560608201526003909101546080909101529392505050565b611c996040518061012001604052805f81526020015f6001600160a01b031681526020015f6001600160a01b031681526020015f81526020015f81526020015f81526020015f81526020015f151581526020015f151581525090565b505f908152600360208181526040928390208351610120810185528154815260018201546001600160a01b039081169382019390935260028201549092169382019390935290820154606082015260048201546080820152600582015460a0820152600682015460c082015260079091015460ff808216151560e0840152610100918290041615159082015290565b611d30611fc5565b611d38611fef565b5f818152600360205260408120549003611d6557604051632627b46560e11b815260040160405180910390fd5b5f8181526003602052604090206007015460ff16611d9657604051637701967760e01b815260040160405180910390fd5b5f81815260036020526040902060070154610100900460ff1615611dcd57604051633375d5c760e11b815260040160405180910390fd5b345f03611ded5760405163bdd5839b60e01b815260040160405180910390fd5b5f818152600360205260409020600201546001600160a01b031615611e2557604051631606f6e560e11b815260040160405180910390fd5b5f81815260066020908152604080832033845290915281208054349290611e4d9084906125bf565b90915550505f8181526007602052604081208054349290611e6f9084906125bf565b90915550505f8181526003602052604081206004018054349290611e949084906125bf565b90915550505f8181526003602052604081206005018054349290611eb99084906125bf565b9091555050604051348152339082907f0b5b4c52969ff7329ecf7ee536409fda87812b15a8622bc6e8cdeab3aee14a269060200160405180910390a3610cf160015f8051602061272983398151915255565b611f13611f45565b6001600160a01b038116611f3c57604051631e4fbdf760e01b81525f60048201526024016108af565b610cf181612033565b5f546001600160a01b031633146109105760405163118cdaa760e01b81523360048201526024016108af565b611f7961200a565b5f805460ff60a01b191690557f5db9ee0a495bf2e6ff9c91a7834c1ba4fdd244a5e8aa4e537bd38aeae4b073aa335b6040516001600160a01b03909116815260200160405180910390a1565b5f54600160a01b900460ff16156109105760405163d93c066560e01b815260040160405180910390fd5b611ff76120c4565b60025f8051602061272983398151915255565b5f54600160a01b900460ff1661091057604051638dfc202b60e01b815260040160405180910390fd5b5f80546001600160a01b038381166001600160a01b0319831681178455604051919092169283917f8be0079c531659141344cd1fd0a4f28419497f9722a3daafe3b4186f6b6457e09190a35050565b61208a611fc5565b5f805460ff60a01b1916600160a01b1790557f62e78cea01bee320cd4e420270b5ea74000d11b0c9f74754ebdbfc544b05a258611fa83390565b5f805160206127298339815191525460020361091057604051633ee5aeb560e01b815260040160405180910390fd5b80356001600160a01b0381168114612109575f80fd5b919050565b5f805f60608486031215612120575f80fd5b8335925060208401359150612137604085016120f3565b90509250925092565b5f60208284031215612150575f80fd5b5035919050565b5f60208284031215612167575f80fd5b612170826120f3565b9392505050565b5f8060408385031215612188575f80fd5b50508035926020909101359150565b5f81518084525f5b818110156121bb5760208185018101518683018201520161219f565b505f602082860101526020601f19601f83011685010191505092915050565b60a081525f6121ec60a0830188612197565b60208301969096525092151560408401529015156060830152608090910152919050565b5f8060408385031215612221575f80fd5b82359150612231602084016120f3565b90509250929050565b602081525f825160a0602084015261225560c0840182612197565b905060208401516040840152604084015115156060840152606084015115156080840152608084015160a08401528091505092915050565b634e487b7160e01b5f52604160045260245ffd5b604051601f8201601f1916810167ffffffffffffffff811182821017156122ca576122ca61228d565b604052919050565b5f67ffffffffffffffff8211156122eb576122eb61228d565b5060051b60200190565b5f82601f830112612304575f80fd5b81356020612319612314836122d2565b6122a1565b8083825260208201915060208460051b87010193508684111561233a575f80fd5b602086015b84811015612356578035835291830191830161233f565b509695505050505050565b5f805f8060808587031215612374575f80fd5b61237d856120f3565b93506020808601359350604086013567ffffffffffffffff808211156123a1575f80fd5b818801915088601f8301126123b4575f80fd5b81356123c2612314826122d2565b81815260059190911b8301840190848101908b8311156123e0575f80fd5b8585015b83811015612465578035858111156123fa575f80fd5b8601603f81018e1361240a575f80fd5b878101358681111561241e5761241e61228d565b612430601f8201601f19168a016122a1565b8181528f6040838501011115612444575f80fd5b81604084018b8301375f9181018a01919091528452509186019186016123e4565b5096505050606088013592508083111561247d575f80fd5b505061248b878288016122f5565b91505092959194509250565b5f6101208201905082518252602083015160018060a01b0380821660208501528060408601511660408501525050606083015160608301526080830151608083015260a083015160a083015260c083015160c083015260e083015161250060e084018215159052565b50610100928301511515919092015290565b600181811c9082168061252657607f821691505b60208210810361254457634e487b7160e01b5f52602260045260245ffd5b50919050565b634e487b7160e01b5f52601160045260245ffd5b808202811582820484141761131f5761131f61254a565b5f8261258f57634e487b7160e01b5f52601260045260245ffd5b500490565b8181038181111561131f5761131f61254a565b5f600182016125b8576125b861254a565b5060010190565b8082018082111561131f5761131f61254a565b5f602082840312156125e2575f80fd5b81518015158114612170575f80fd5b634e487b7160e01b5f52603260045260245ffd5b601f82111561264c57805f5260205f20601f840160051c8101602085101561262a5750805b601f840160051c820191505b81811015612649575f8155600101612636565b50505b505050565b815167ffffffffffffffff81111561266b5761266b61228d565b61267f816126798454612512565b84612605565b602080601f8311600181146126b2575f841561269b5750858301515b5f19600386901b1c1916600185901b178555612709565b5f85815260208120601f198616915b828110156126e0578886015182559484019460019091019084016126c1565b50858210156126fd57878501515f19600388901b60f8161c191681555b505060018460011b0185555b505050505050565b5f60208284031215612721575f80fd5b505191905056fe9b779b17422d0df92223018b32b4d1fa46e071723d6817e2486d003becc55f00a26469706673582212208ae070b887feef0404ac2ff6235e90b78acda5d7f7c9b762ac3ab2d6da03bb5c64736f6c63430008180033","linkReferences":{}},"methodIdentifiers":{"createProject(address,uint256,string[],uint256[])":"bfd38698","donate(uint256)":"f14faf6f","donateERC20(uint256,uint256)":"e6ac3985","donorContributions(uint256,address)":"3e2f2915","emergencyWithdraw(uint256)":"5312ea8e","getCurrentMilestone(uint256)":"e76efc00","getDonorContribution(uint256,address)":"a1be44e0","getMilestone(uint256,uint256)":"8ed9895c","getMilestoneVoteStatus(uint256,uint256)":"86846405","getProject(uint256)":"f0f3f2c8","getProjectMilestoneCount(uint256)":"7592cf88","hasDonorVoted(uint256,uint256,address)":"a4f325a8","hasVoted(uint256,uint256,address)":"0d39a1d3","isVerifiedNGO(address)":"9ef120e8","milestoneSnapshotDonations(uint256,uint256)":"ca56d425","milestones(uint256,uint256)":"1c376c63","owner()":"8da5cb5b","pause()":"8456cb59","paused()":"5c975abb","projectCounter()":"f8a518ed","projectMilestoneCount(uint256)":"489c9c75","projects(uint256)":"107046bd","registerNGO(address)":"ba581e53","releaseFunds(uint256)":"4d68282f","renounceOwnership()":"715018a6","revokeNGO(address)":"22eb641d","totalProjectDonations(uint256)":"dab3a208","transferOwnership(address)":"f2fde38b","unpause()":"3f4ba83a","verifiedNGOs(address)":"1bed7b88","voteMilestone(uint256)":"57ded802"},"id":28}